{
  "_format": "hh-sol-artifact-1",
  "contractName": "DocumentApproval",
  "sourceName": "contracts/DocumentApproval.sol",
  "abi": [
    {
      "anonymous": false,
      "inputs": [
        {
          "indexed": true,
          "internalType": "string",
          "name": "documentId",
          "type": "string"
        },
        {
          "indexed": true,
          "internalType": "address",
          "name": "approverAddress",
          "type": "address"
        },
        {
          "indexed": false,
          "internalType": "string",
          "name": "action",
          "type": "string"
        }
      ],
      "name": "ApprovalRecorded",
      "type": "event"
    },
    {
      "anonymous": false,
      "inputs": [
        {
          "indexed": true,
          "internalType": "string",
          "name": "documentId",
          "type": "string"
        },
        {
          "indexed": false,
          "internalType": "string",
          "name": "sha256Hash",
          "type": "string"
        },
        {
          "indexed": false,
          "internalType": "uint256",
          "name": "uploadedBy",
          "type": "uint256"
        }
      ],
      "name": "DocumentStored",
      "type": "event"
    },
    {
      "inputs": [
        {
          "internalType": "string",
          "name": "_docId",
          "type": "string"
        }
      ],
      "name": "getApprovalHistory",
      "outputs": [
        {
          "components": [
            {
              "internalType": "address",
              "name": "approverAddress",
              "type": "address"
            },
            {
              "internalType": "string",
              "name": "action",
              "type": "string"
            },
            {
              "internalType": "uint256",
              "name": "timestamp",
              "type": "uint256"
            }
          ],
          "internalType": "struct DocumentApproval.ApprovalRecord[]",
          "name": "",
          "type": "tuple[]"
        }
      ],
      "stateMutability": "view",
      "type": "function"
    },
    {
      "inputs": [
        {
          "internalType": "string",
          "name": "_docId",
          "type": "string"
        },
        {
          "internalType": "string",
          "name": "_action",
          "type": "string"
        }
      ],
      "name": "recordApproval",
      "outputs": [],
      "stateMutability": "nonpayable",
      "type": "function"
    },
    {
      "inputs": [
        {
          "internalType": "string",
          "name": "_docId",
          "type": "string"
        },
        {
          "internalType": "string",
          "name": "_sha256Hash",
          "type": "string"
        },
        {
          "internalType": "uint256",
          "name": "_uploadedBy",
          "type": "uint256"
        }
      ],
      "name": "storeDocumentHash",
      "outputs": [],
      "stateMutability": "nonpayable",
      "type": "function"
    },
    {
      "inputs": [
        {
          "internalType": "string",
          "name": "_docId",
          "type": "string"
        },
        {
          "internalType": "string",
          "name": "_hashToVerify",
          "type": "string"
        }
      ],
      "name": "verifyDocumentHash",
      "outputs": [
        {
          "internalType": "bool",
          "name": "",
          "type": "bool"
        }
      ],
      "stateMutability": "view",
      "type": "function"
    }
  ],
  "bytecode": "0x608060405234801561001057600080fd5b5061114a806100206000396000f3fe608060405234801561001057600080fd5b506004361061004c5760003560e01c80635a39685e146100515780636836e1af14610081578063ea37d80f1461009d578063fb44be47146100cd575b600080fd5b61006b600480360381019061006691906107e5565b6100e9565b6040516100789190610a19565b60405180910390f35b61009b60048036038101906100969190610a67565b6102c9565b005b6100b760048036038101906100b29190610af2565b6103e6565b6040516100c49190610b85565b60405180910390f35b6100e760048036038101906100e29190610af2565b6104cc565b005b60606000826040516100fb9190610bdc565b908152602001604051809103902060020160009054906101000a900460ff16610159576040517f08c379a000000000000000000000000000000000000000000000000000000000815260040161015090610c50565b60405180910390fd5b6000826040516101699190610bdc565b9081526020016040518091039020600301805480602002602001604051908101604052809291908181526020016000905b828210156102be57838290600052602060002090600302016040518060600160405290816000820160009054906101000a900473ffffffffffffffffffffffffffffffffffffffff1673ffffffffffffffffffffffffffffffffffffffff1673ffffffffffffffffffffffffffffffffffffffff16815260200160018201805461022390610c9f565b80601f016020809104026020016040519081016040528092919081815260200182805461024f90610c9f565b801561029c5780601f106102715761010080835404028352916020019161029c565b820191906000526020600020905b81548152906001019060200180831161027f57829003601f168201915b505050505081526020016002820154815250508152602001906001019061019a565b505050509050919050565b6000836040516102d99190610bdc565b908152602001604051809103902060020160009054906101000a900460ff1615610338576040517f08c379a000000000000000000000000000000000000000000000000000000000815260040161032f90610d42565b60405180910390fd5b600080846040516103499190610bdc565b908152602001604051809103902090508281600001908161036a9190610f0e565b5081816001018190555060018160020160006101000a81548160ff0219169083151502179055508360405161039f9190610bdc565b60405180910390207fa4343d1f6ff50dd1a4485378aeac87424c7abf841b5f92bcb249253e8a74ef2384846040516103d8929190611028565b60405180910390a250505050565b600080836040516103f79190610bdc565b908152602001604051809103902060020160009054906101000a900460ff16610455576040517f08c379a000000000000000000000000000000000000000000000000000000000815260040161044c90610c50565b60405180910390fd5b816040516020016104669190610bdc565b6040516020818303038152906040528051906020012060008460405161048c9190610bdc565b90815260200160405180910390206000016040516020016104ad91906110db565b6040516020818303038152906040528051906020012014905092915050565b6000826040516104dc9190610bdc565b908152602001604051809103902060020160009054906101000a900460ff1661053a576040517f08c379a000000000000000000000000000000000000000000000000000000000815260040161053190610c50565b60405180910390fd5b6000808360405161054b9190610bdc565b908152602001604051809103902090508060030160405180606001604052803373ffffffffffffffffffffffffffffffffffffffff16815260200184815260200142815250908060018154018082558091505060019003906000526020600020906003020160009091909190915060008201518160000160006101000a81548173ffffffffffffffffffffffffffffffffffffffff021916908373ffffffffffffffffffffffffffffffffffffffff16021790555060208201518160010190816106159190610f0e565b506040820151816002015550503373ffffffffffffffffffffffffffffffffffffffff16836040516106479190610bdc565b60405180910390207f1ac44451736313ed0d965d2fcd8ebc0625a3b39e9425dd2df95a466041fc40f58460405161067e91906110f2565b60405180910390a3505050565b6000604051905090565b600080fd5b600080fd5b600080fd5b600080fd5b6000601f19601f8301169050919050565b7f4e487b7100000000000000000000000000000000000000000000000000000000600052604160045260246000fd5b6106f2826106a9565b810181811067ffffffffffffffff82111715610711576107106106ba565b5b80604052505050565b600061072461068b565b905061073082826106e9565b919050565b600067ffffffffffffffff8211156107505761074f6106ba565b5b610759826106a9565b9050602081019050919050565b82818337600083830152505050565b600061078861078384610735565b61071a565b9050828152602081018484840111156107a4576107a36106a4565b5b6107af848285610766565b509392505050565b600082601f8301126107cc576107cb61069f565b5b81356107dc848260208601610775565b91505092915050565b6000602082840312156107fb576107fa610695565b5b600082013567ffffffffffffffff8111156108195761081861069a565b5b610825848285016107b7565b91505092915050565b600081519050919050565b600082825260208201905092915050565b6000819050602082019050919050565b600073ffffffffffffffffffffffffffffffffffffffff82169050919050565b60006108858261085a565b9050919050565b6108958161087a565b82525050565b600081519050919050565b600082825260208201905092915050565b60005b838110156108d55780820151818401526020810190506108ba565b60008484015250505050565b60006108ec8261089b565b6108f681856108a6565b93506109068185602086016108b7565b61090f816106a9565b840191505092915050565b6000819050919050565b61092d8161091a565b82525050565b600060608301600083015161094b600086018261088c565b506020830151848203602086015261096382826108e1565b91505060408301516109786040860182610924565b508091505092915050565b600061098f8383610933565b905092915050565b6000602082019050919050565b60006109af8261082e565b6109b98185610839565b9350836020820285016109cb8561084a565b8060005b85811015610a0757848403895281516109e88582610983565b94506109f383610997565b925060208a019950506001810190506109cf565b50829750879550505050505092915050565b60006020820190508181036000830152610a3381846109a4565b905092915050565b610a448161091a565b8114610a4f57600080fd5b50565b600081359050610a6181610a3b565b92915050565b600080600060608486031215610a8057610a7f610695565b5b600084013567ffffffffffffffff811115610a9e57610a9d61069a565b5b610aaa868287016107b7565b935050602084013567ffffffffffffffff811115610acb57610aca61069a565b5b610ad7868287016107b7565b9250506040610ae886828701610a52565b9150509250925092565b60008060408385031215610b0957610b08610695565b5b600083013567ffffffffffffffff811115610b2757610b2661069a565b5b610b33858286016107b7565b925050602083013567ffffffffffffffff811115610b5457610b5361069a565b5b610b60858286016107b7565b9150509250929050565b60008115159050919050565b610b7f81610b6a565b82525050565b6000602082019050610b9a6000830184610b76565b92915050565b600081905092915050565b6000610bb68261089b565b610bc08185610ba0565b9350610bd08185602086016108b7565b80840191505092915050565b6000610be88284610bab565b915081905092915050565b600082825260208201905092915050565b7f446f63756d656e7420646f6573206e6f74206578697374210000000000000000600082015250565b6000610c3a601883610bf3565b9150610c4582610c04565b602082019050919050565b60006020820190508181036000830152610c6981610c2d565b9050919050565b7f4e487b7100000000000000000000000000000000000000000000000000000000600052602260045260246000fd5b60006002820490506001821680610cb757607f821691505b602082108103610cca57610cc9610c70565b5b50919050565b7f446f63756d656e7420616c726561647920657869737473206f6e20626c6f636b60008201527f636861696e210000000000000000000000000000000000000000000000000000602082015250565b6000610d2c602683610bf3565b9150610d3782610cd0565b604082019050919050565b60006020820190508181036000830152610d5b81610d1f565b9050919050565b60008190508160005260206000209050919050565b60006020601f8301049050919050565b600082821b905092915050565b600060088302610dc47fffffffffffffffffffffffffffffffffffffffffffffffffffffffffffffffff82610d87565b610dce8683610d87565b95508019841693508086168417925050509392505050565b6000819050919050565b6000610e0b610e06610e018461091a565b610de6565b61091a565b9050919050565b6000819050919050565b610e2583610df0565b610e39610e3182610e12565b848454610d94565b825550505050565b600090565b610e4e610e41565b610e59818484610e1c565b505050565b5b81811015610e7d57610e72600082610e46565b600181019050610e5f565b5050565b601f821115610ec257610e9381610d62565b610e9c84610d77565b81016020851015610eab578190505b610ebf610eb785610d77565b830182610e5e565b50505b505050565b600082821c905092915050565b6000610ee560001984600802610ec7565b1980831691505092915050565b6000610efe8383610ed4565b9150826002028217905092915050565b610f178261089b565b67ffffffffffffffff811115610f3057610f2f6106ba565b5b610f3a8254610c9f565b610f45828285610e81565b600060209050601f831160018114610f785760008415610f66578287015190505b610f708582610ef2565b865550610fd8565b601f198416610f8686610d62565b60005b82811015610fae57848901518255600182019150602085019450602081019050610f89565b86831015610fcb5784890151610fc7601f891682610ed4565b8355505b6001600288020188555050505b505050505050565b6000610feb8261089b565b610ff58185610bf3565b93506110058185602086016108b7565b61100e816106a9565b840191505092915050565b6110228161091a565b82525050565b600060408201905081810360008301526110428185610fe0565b90506110516020830184611019565b9392505050565b6000815461106581610c9f565b61106f8186610ba0565b9450600182166000811461108a576001811461109f576110d2565b60ff19831686528115158202860193506110d2565b6110a885610d62565b60005b838110156110ca578154818901526001820191506020810190506110ab565b838801955050505b50505092915050565b60006110e78284611058565b915081905092915050565b6000602082019050818103600083015261110c8184610fe0565b90509291505056fea264697066735822122051f6971d65bb808d700f7ecb11937ab78dcbc5bc090b1f3cc11fd337f49a101064736f6c63430008140033",
  "linkReferences": {},
  "deployedLinkReferences": {}
}