{
  "_format": "hh-sol-artifact-1",
  "contractName": "DocumentApproval",
  "sourceName": "contracts/DocumentApproval.sol",
  "abi": [
    {
      "anonymous": false,
      "inputs": [
        {
          "indexed": true,
          "internalType": "string",
          "name": "documentId",
          "type": "string"
        },
        {
          "indexed": true,
          "internalType": "address",
          "name": "approverAddress",
          "type": "address"
        },
        {
          "indexed": false,
          "internalType": "string",
          "name": "action",
          "type": "string"
        }
      ],
      "name": "ApprovalRecorded",
      "type": "event"
    },
    {
      "anonymous": false,
      "inputs": [
        {
          "indexed": true,
          "internalType": "string",
          "name": "documentId",
          "type": "string"
        },
        {
          "indexed": false,
          "internalType": "string",
          "name": "sha256Hash",
          "type": "string"
        },
        {
          "indexed": false,
          "internalType": "uint256",
          "name": "uploadedBy",
          "type": "uint256"
        }
      ],
      "name": "DocumentStored",
      "type": "event"
    },
    {
      "inputs": [
        {
          "internalType": "string",
          "name": "_docId",
          "type": "string"
        }
      ],
      "name": "getApprovalHistory",
      "outputs": [
        {
          "components": [
            {
              "internalType": "address",
              "name": "approverAddress",
              "type": "address"
            },
            {
              "internalType": "string",
              "name": "action",
              "type": "string"
            },
            {
              "internalType": "uint256",
              "name": "timestamp",
              "type": "uint256"
            }
          ],
          "internalType": "struct DocumentApproval.ApprovalRecord[]",
          "name": "",
          "type": "tuple[]"
        }
      ],
      "stateMutability": "view",
      "type": "function"
    },
    {
      "inputs": [
        {
          "internalType": "string",
          "name": "_docId",
          "type": "string"
        },
        {
          "internalType": "string",
          "name": "_action",
          "type": "string"
        }
      ],
      "name": "recordApproval",
      "outputs": [],
      "stateMutability": "nonpayable",
      "type": "function"
    },
    {
      "inputs": [
        {
          "internalType": "string",
          "name": "_docId",
          "type": "string"
        },
        {
          "internalType": "string",
          "name": "_sha256Hash",
          "type": "string"
        },
        {
          "internalType": "uint256",
          "name": "_uploadedBy",
          "type": "uint256"
        }
      ],
      "name": "storeDocumentHash",
      "outputs": [],
      "stateMutability": "nonpayable",
      "type": "function"
    },
    {
      "inputs": [
        {
          "internalType": "string",
          "name": "_docId",
          "type": "string"
        },
        {
          "internalType": "string",
          "name": "_hashToVerify",
          "type": "string"
        }
      ],
      "name": "verifyDocumentHash",
      "outputs": [
        {
          "internalType": "bool",
          "name": "",
          "type": "bool"
        }
      ],
      "stateMutability": "view",
      "type": "function"
    }
  ],
  "bytecode": "0x608060405234801561001057600080fd5b50611049806100206000396000f3fe608060405234801561001057600080fd5b506004361061004c5760003560e01c80635a39685e146100515780636836e1af14610081578063ea37d80f1461009d578063fb44be47146100cd575b600080fd5b61006b60048036038101906100669190610776565b6100e9565b60405161007891906109aa565b60405180910390f35b61009b600480360381019061009691906109f8565b6102c9565b005b6100b760048036038101906100b29190610a83565b610377565b6040516100c49190610b16565b60405180910390f35b6100e760048036038101906100e29190610a83565b61045d565b005b60606000826040516100fb9190610b6d565b908152602001604051809103902060020160009054906101000a900460ff16610159576040517f08c379a000000000000000000000000000000000000000000000000000000000815260040161015090610be1565b60405180910390fd5b6000826040516101699190610b6d565b9081526020016040518091039020600301805480602002602001604051908101604052809291908181526020016000905b828210156102be57838290600052602060002090600302016040518060600160405290816000820160009054906101000a900473ffffffffffffffffffffffffffffffffffffffff1673ffffffffffffffffffffffffffffffffffffffff1673ffffffffffffffffffffffffffffffffffffffff16815260200160018201805461022390610c30565b80601f016020809104026020016040519081016040528092919081815260200182805461024f90610c30565b801561029c5780601f106102715761010080835404028352916020019161029c565b820191906000526020600020905b81548152906001019060200180831161027f57829003601f168201915b505050505081526020016002820154815250508152602001906001019061019a565b505050509050919050565b600080846040516102da9190610b6d565b90815260200160405180910390209050828160000190816102fb9190610e0d565b5081816001018190555060018160020160006101000a81548160ff021916908315150217905550836040516103309190610b6d565b60405180910390207fa4343d1f6ff50dd1a4485378aeac87424c7abf841b5f92bcb249253e8a74ef238484604051610369929190610f27565b60405180910390a250505050565b600080836040516103889190610b6d565b908152602001604051809103902060020160009054906101000a900460ff166103e6576040517f08c379a00000000000000000000000000000000000000000000000000000000081526004016103dd90610be1565b60405180910390fd5b816040516020016103f79190610b6d565b6040516020818303038152906040528051906020012060008460405161041d9190610b6d565b908152602001604051809103902060000160405160200161043e9190610fda565b6040516020818303038152906040528051906020012014905092915050565b60008260405161046d9190610b6d565b908152602001604051809103902060020160009054906101000a900460ff166104cb576040517f08c379a00000000000000000000000000000000000000000000000000000000081526004016104c290610be1565b60405180910390fd5b600080836040516104dc9190610b6d565b908152602001604051809103902090508060030160405180606001604052803373ffffffffffffffffffffffffffffffffffffffff16815260200184815260200142815250908060018154018082558091505060019003906000526020600020906003020160009091909190915060008201518160000160006101000a81548173ffffffffffffffffffffffffffffffffffffffff021916908373ffffffffffffffffffffffffffffffffffffffff16021790555060208201518160010190816105a69190610e0d565b506040820151816002015550503373ffffffffffffffffffffffffffffffffffffffff16836040516105d89190610b6d565b60405180910390207f1ac44451736313ed0d965d2fcd8ebc0625a3b39e9425dd2df95a466041fc40f58460405161060f9190610ff1565b60405180910390a3505050565b6000604051905090565b600080fd5b600080fd5b600080fd5b600080fd5b6000601f19601f8301169050919050565b7f4e487b7100000000000000000000000000000000000000000000000000000000600052604160045260246000fd5b6106838261063a565b810181811067ffffffffffffffff821117156106a2576106a161064b565b5b80604052505050565b60006106b561061c565b90506106c1828261067a565b919050565b600067ffffffffffffffff8211156106e1576106e061064b565b5b6106ea8261063a565b9050602081019050919050565b82818337600083830152505050565b6000610719610714846106c6565b6106ab565b90508281526020810184848401111561073557610734610635565b5b6107408482856106f7565b509392505050565b600082601f83011261075d5761075c610630565b5b813561076d848260208601610706565b91505092915050565b60006020828403121561078c5761078b610626565b5b600082013567ffffffffffffffff8111156107aa576107a961062b565b5b6107b684828501610748565b91505092915050565b600081519050919050565b600082825260208201905092915050565b6000819050602082019050919050565b600073ffffffffffffffffffffffffffffffffffffffff82169050919050565b6000610816826107eb565b9050919050565b6108268161080b565b82525050565b600081519050919050565b600082825260208201905092915050565b60005b8381101561086657808201518184015260208101905061084b565b60008484015250505050565b600061087d8261082c565b6108878185610837565b9350610897818560208601610848565b6108a08161063a565b840191505092915050565b6000819050919050565b6108be816108ab565b82525050565b60006060830160008301516108dc600086018261081d565b50602083015184820360208601526108f48282610872565b915050604083015161090960408601826108b5565b508091505092915050565b600061092083836108c4565b905092915050565b6000602082019050919050565b6000610940826107bf565b61094a81856107ca565b93508360208202850161095c856107db565b8060005b8581101561099857848403895281516109798582610914565b945061098483610928565b925060208a01995050600181019050610960565b50829750879550505050505092915050565b600060208201905081810360008301526109c48184610935565b905092915050565b6109d5816108ab565b81146109e057600080fd5b50565b6000813590506109f2816109cc565b92915050565b600080600060608486031215610a1157610a10610626565b5b600084013567ffffffffffffffff811115610a2f57610a2e61062b565b5b610a3b86828701610748565b935050602084013567ffffffffffffffff811115610a5c57610a5b61062b565b5b610a6886828701610748565b9250506040610a79868287016109e3565b9150509250925092565b60008060408385031215610a9a57610a99610626565b5b600083013567ffffffffffffffff811115610ab857610ab761062b565b5b610ac485828601610748565b925050602083013567ffffffffffffffff811115610ae557610ae461062b565b5b610af185828601610748565b9150509250929050565b60008115159050919050565b610b1081610afb565b82525050565b6000602082019050610b2b6000830184610b07565b92915050565b600081905092915050565b6000610b478261082c565b610b518185610b31565b9350610b61818560208601610848565b80840191505092915050565b6000610b798284610b3c565b915081905092915050565b600082825260208201905092915050565b7f446f63756d656e7420646f6573206e6f74206578697374210000000000000000600082015250565b6000610bcb601883610b84565b9150610bd682610b95565b602082019050919050565b60006020820190508181036000830152610bfa81610bbe565b9050919050565b7f4e487b7100000000000000000000000000000000000000000000000000000000600052602260045260246000fd5b60006002820490506001821680610c4857607f821691505b602082108103610c5b57610c5a610c01565b5b50919050565b60008190508160005260206000209050919050565b60006020601f8301049050919050565b600082821b905092915050565b600060088302610cc37fffffffffffffffffffffffffffffffffffffffffffffffffffffffffffffffff82610c86565b610ccd8683610c86565b95508019841693508086168417925050509392505050565b6000819050919050565b6000610d0a610d05610d00846108ab565b610ce5565b6108ab565b9050919050565b6000819050919050565b610d2483610cef565b610d38610d3082610d11565b848454610c93565b825550505050565b600090565b610d4d610d40565b610d58818484610d1b565b505050565b5b81811015610d7c57610d71600082610d45565b600181019050610d5e565b5050565b601f821115610dc157610d9281610c61565b610d9b84610c76565b81016020851015610daa578190505b610dbe610db685610c76565b830182610d5d565b50505b505050565b600082821c905092915050565b6000610de460001984600802610dc6565b1980831691505092915050565b6000610dfd8383610dd3565b9150826002028217905092915050565b610e168261082c565b67ffffffffffffffff811115610e2f57610e2e61064b565b5b610e398254610c30565b610e44828285610d80565b600060209050601f831160018114610e775760008415610e65578287015190505b610e6f8582610df1565b865550610ed7565b601f198416610e8586610c61565b60005b82811015610ead57848901518255600182019150602085019450602081019050610e88565b86831015610eca5784890151610ec6601f891682610dd3565b8355505b6001600288020188555050505b505050505050565b6000610eea8261082c565b610ef48185610b84565b9350610f04818560208601610848565b610f0d8161063a565b840191505092915050565b610f21816108ab565b82525050565b60006040820190508181036000830152610f418185610edf565b9050610f506020830184610f18565b9392505050565b60008154610f6481610c30565b610f6e8186610b31565b94506001821660008114610f895760018114610f9e57610fd1565b60ff1983168652811515820286019350610fd1565b610fa785610c61565b60005b83811015610fc957815481890152600182019150602081019050610faa565b838801955050505b50505092915050565b6000610fe68284610f57565b915081905092915050565b6000602082019050818103600083015261100b8184610edf565b90509291505056fea26469706673582212205f48b992d845a5f7cedb50235206fb71b9adec9396fd78c0af1cb47848f63e3764736f6c63430008140033",
  "linkReferences": {},
  "deployedLinkReferences": {}
}